:100000000C94FE000C9408010C9408010C94080157
:100010000C9408010C9408010C9408010C9408013C
:100020000C9408010C9408010C9408010C9408012C
:100030000C9408010C9408010C9408010C9408011C
:100040000C9408010C9408010C9408010C9408010C
:100050000C9408010C9408010C9408010C940801FC
:100060000C9408010C9408010C9408010C940801EC
:100070000C9408010C9408010C9408010C940801DC
:100080000C9408010C9408010C9408010C940801CC
:100090000C9408010C9408010C9408010C940801BC
:1000A0000C9408010C9408010C9408010C940801AC
:1000B0000C9408010C9408010C9408010C9408019C
:1000C0000C9408010C9408010C9408010C9408018C
:1000D0000C9408010C9408010C9408010C9408017C
:1000E0000C9408010C9408010C9408010C9408016C
:1000F0000C9408010C9408010C9408010C9408015C
:100100000C9408010C9408010C9408010C9408014B
:100110000C9408010C9408010C9408010C9408013B
:100120000C9408010C9408010C9408010C9408012B
:100130000C9408010C9408010C9408010C9408011B
:100140000C9408010C9408010C9408010C9408010B
:100150000C9408010C9408010C9408010C940801FB
:100160000C9408010C9408010C9408010C940801EB
:100170000C9408010C9408010C9408010C940801DB
:100180000C9408010C9408010C9408010C940801CB
:100190000C9408010C9408010C9408010C940801BB
:1001A0000C9408010C9408010C9408010C940801AB
:1001B0000C9408010C9408010C9408010C9408019B
:1001C0000C9408010C9408010C9408010C9408018B
:1001D0000C9408010C9408010C9408010C9408017B
:1001E0000C9408010C9408010C9408010C9408016B
:1001F0000C9408010C9408010C94080111241FBEF2
:10020000CFEFCDBFDFE2DEBF0E941C010C943101B5
:100210000C94000082E0809350008091510081FF97
:10022000FCCF88ED84BF81E0809340008091500036
:100230008E7F8093500008950E940A0183E080938E
:10024000210682E08093250683E0809327062FEF26
:1002500033ED90E3215030409040E1F700C00000C2
:06026000F4CFF894FFCF7B
:00000001FF
