:100000000C94FE000C9410010C9410010C9410013F
:100010000C9410010C9410010C9410010C9410011C
:100020000C9410010C9410010C9410010C9410010C
:100030000C9410010C9410010C9400050C94100108
:100040000C9410010C9410010C9410010C941001EC
:100050000C9410010C9410010C9410010C941001DC
:100060000C9410010C9410010C94E7030C942A04D6
:100070000C944C030C940E030C94EB020C941001A2
:100080000C9410010C9410010C949F040C9410011A
:100090000C9410010C9410010C9410010C9410019C
:1000A0000C9410010C9410010C9410010C9410018C
:1000B0000C9410010C9410010C9410010C9410017C
:1000C0000C9410010C9410010C9410010C9410016C
:1000D0000C9410010C9410010C9410010C9410015C
:1000E0000C9410010C9410010C9410010C9410014C
:1000F0000C9410010C9410010C9410010C9410013C
:100100000C9410010C9410010C9410010C9410012B
:100110000C9410010C9410010C9410010C9410011B
:100120000C9410010C9410010C9410010C9410010B
:100130000C9410010C9443050C9410010C941001C4
:100140000C9410010C9410010C9410010C941001EB
:100150000C9410010C9410010C9410010C941001DB
:100160000C9410010C9410010C9410010C941001CB
:100170000C9410010C9410010C9410010C941001BB
:100180000C9410010C9410010C9410010C941001AB
:100190000C9410010C9410010C9410010C9410019B
:1001A0000C9410010C9410010C9410010C9410018B
:1001B0000C9410010C9410010C9410010C9410017B
:1001C0000C9410010C9410010C9410010C9410016B
:1001D0000C9410010C9410010C9410010C9410015B
:1001E0000C9410010C9410010C9410010C9410014B
:1001F0000C9410010C9410010C94100111241FBEDA
:10020000CFEFCDBFDFE2DEBF20E2A0E0B0E201C071
:100210001D92AC36B207E1F70E9412010C94610501
:100220000C9400000E94E80487E00E94FA0478948D
:1002300083E0809326068093210664E08DE290E2BD
:100240000E94870482E08093250687E090E20E9466
:100250005E0586E090E20E94230545E350E26BE1F3
:100260008FE290E20E943F0440E550E26BE180E0C3
:1002700090E20E943F0481E290E20E94A90345E0DF
:1002800060E888E090E20E94770140E662E088E062
:1002900090E20E94DF0188E090E20E949D0281E2EC
:1002A00090E20E94B303F7CFFC0180E18093460601
:1002B00080818E7F808381E08183E0EBF8E0608342
:1002C00083818C6083830895FC0180E180934606DE
:1002D00080818D7F808382E08183648B138A828119
:1002E000E0EBF8E0808383818F60838308950F9330
:1002F0001F93CF93DF93EC01062F142F188281E018
:100300008F8B80E18093450690EA9093460690EBB0
:1003100090934106809345069CE1909366069093E6
:10032000610697E09093B6081092B7089091B508CF
:10033000926C9093B5089091B40898609093B4082B
:1003400025ED2A95F1F7000098E1909365063FEFBF
:1003500097EA21E6315090402040E1F700C00000CC
:100360008093660635E13A95F1F7000080936506C3
:1003700080E68A95F1F761E1CE010E9454018881FF
:1003800080FFFDCF83E48A831B8280EC8C8363E053
:10039000CE010E946401888181FFFDCF81E48A83C0
:1003A0001B82102B1C8363E0CE010E9464018881B4
:1003B00081FFFDCFDF91CF911F910F9108951F9382
:1003C000CF93DF93EC01142F6230A1F160F4613020
:1003D00009F08AC082E48A831B821C8263E0CE011A
:1003E0000E9464010FC0633009F445C0643009F015
:1003F0007BC082E48A831B821C8263E0CE010E9460
:1004000064015BC0888181FFFDCF85E48A8387E03A
:100410008B8311601C831D831E831F83188719879C
:100420001A871B876AE0CE010E946401888181FFE0
:10043000FDCF5AC082E48A831B8280E18C8363E013
:10044000CE010E946401888181FFFDCF85E48A830B
:1004500087E08B8315601C831D831E831F83188791
:1004600019871A871B876AE0CE010E946401888180
:1004700081FFFDCF39C082E48A831B8280E18C83B7
:1004800063E0CE010E946401888181FFFDCF85E495
:100490008A8387E08B83812F85608C831D831E83F5
:1004A0001F83188719871A871B876AE0CE010E946D
:1004B0006401888181FFFDCF17C0888181FFFDCF56
:1004C00085E48A8387E08B8310681C831D831E83E9
:1004D0001F83188719871A871B876AE0CE010E943D
:1004E0006401888181FFFDCF88818F7E888384E0CD
:1004F0008093650660E1CE010E945401888180FFEF
:10050000FDCFDF91CF911F910895CF93DF93EC0141
:100510008FE290E20E948104882311F081E007C0FD
:1005200080E090E20E948104882319F082E0888FA5
:1005300001C0188EDF91CF910895CF93DF93FC0116
:10054000808184FD45C087898230C9F018F48130EC
:1005500031F03EC08330D1F0843081F139C08091D8
:10056000680685FD02C082E032C0808183FF30C012
:100570008081806180838081877F808329C0EF01B3
:10058000CF010E94850283E08F8B22C09091B40836
:1005900090619093B40890E190934606138A168A6E
:1005A00094E0978B818380818B7F80831092B00849
:1005B0008091B30883638093B3080AC0808182FF6F
:1005C00007C08091B4088F7E8093B40881E0878B48
:1005D000DF91CF9108951F920F920FB60F921124C1
:1005E0008F9380910920813031F0823049F48091DD
:1005F0000820826003C080910820816080930820D9
:100600008091B308837F8093B30880E1809345068F
:100610008F910F900FBE0F901F9018951F920F9201
:100620000FB60F9211248F939F93EF93FF938091B6
:100630000920823019F08330A9F025C080911B2059
:100640008F5F80931B2090911B2080911C20981716
:1006500091F0E0911B20F0E0E85FFF4D82818093F4
:10066000B00811C080911B208F5F80931B20809168
:100670001B208B3131F48091B3088C7F8093B308B9
:1006800002C01092B008FF91EF919F918F910F904F
:100690000FBE0F901F9018951F920F920FB60F92DA
:1006A00011242F933F934F935F936F937F938F9377
:1006B0009F93AF93BF93EF93FF938091B008809384
:1006C0001D208091202060911D20813019F48FE23F
:1006D00090E202C080E090E20E94470480911E20D8
:1006E0008F5F80931E2080911E208B3169F4809152
:1006F000B3088F7C8093B308809108208460809336
:10070000082080E180934506FF91EF91BF91AF9162
:100710009F918F917F916F915F914F913F912F9119
:100720000F900FBE0F901F90189588E080934106A0
:1007300084E0809342061092A70883E08093A60885
:1007400099E29093A3088093A50888E18093A40878
:100750000895CF93DF93EC010E94950381E0898790
:10076000DF91CF9108951F93CF93DF93EC0119850B
:10077000113019F01330F9F026C08FE290E20E9498
:100780007A04811106C080E090E20E947A048823F6
:1007900021F01A87888180628883888185FF13C051
:1007A00083E089878881806188838091A3088F6036
:1007B0008093A30808C0888184FD05C088818F7D4F
:1007C000888381E08987DF91CF911F9108951F92DF
:1007D0000F920FB60F9211242F933F934F935F9375
:1007E0006F937F938F939F93AF93BF93EF93FF93F9
:1007F000CF93DF931F92CDB7DEB780912B20BE0140
:100800006F5F7F4F813019F48FE290E202C080E089
:1008100090E20E946104882321F089818093A008DE
:1008200005C08091A3088C7F8093A3080F90DF916F
:10083000CF91FF91EF91BF91AF919F918F917F9158
:100840006F915F914F913F912F910F900FBE0F903D
:100850001F9018951F920F920FB60F9211248F932D
:10086000EF93FF93E1E2F0E280818F7E8083FF913E
:10087000EF918F910F900FBE0F901F901895FC0174
:100880001082118212826383448355830895FC0190
:1008900092818381981799F0A481B5818081A80FF6
:1008A000B11D6C9380818F5F8083908183819813C9
:1008B00001C0108282818F5F828381E0089580E091
:1008C0000895FC0182818823A1F0A481B5818181F2
:1008D000A80FB11D8C91DB018C9381818F5F818387
:1008E00091818381981301C011828281815082831A
:1008F00081E00895FC012281938181E0291380E049
:100900000895FC01928181E0911180E00895DC015D
:10091000E0E2F6E0918593609187928594609287FA
:1009200092899160928B81E08C93E8E4F0E0808181
:10093000682B6083808181608083889508951F92F1
:100940000F920FB60F9211242F933F934F935F9303
:100950006F937F938F939F93AF93BF93EF93FF9387
:10096000809129068C7F8093290627E044E86EE178
:1009700086E090E20E94260580912D20813079F05A
:100980008230A9F493E088ED08B618BE84BF909336
:1009900080008091820081FDFCCF08BE08C080915C
:1009A00048008E7F8093480082E080932D20FF9145
:1009B000EF91BF91AF919F918F917F916F915F91D7
:1009C0004F913F912F910F900FBE0F901F90189550
:1009D00082E0809350008091510081FFFCCF88ED30
:1009E00084BF81E080934000809150008E7F80938F
:1009F00050000895E0EAF0E09281892B8283089507
:100A00001F920F920FB60F9211248F93EF93FF93C3
:100A1000E0E0F8E086818C7F8683108288E1818720
:100A200082E080930620E0E2F6E08485816084879E
:100A3000818583608187FF91EF918F910F900FBE29
:100A40000F901F901895FC0110820895FC01808181
:100A500080FF02C08460808390819D7F916090833D
:100A600088E18093090840932608609327088091C5
:100A70000608836080930608809100082F70282B59
:100A80002093000808951F920F920FB60F92112421
:100A90008F93EF93FF93E0E0F9E086818C7F86836C
:100AA000108288E1818782E080930720FF91EF9197
:100AB0008F910F900FBE0F901F901895FC01108220
:060AC0000895F894FFCF39
:00000001FF
